{"contracts/indusrty/SupplyChain.sol":{"SupplyChain":{"abi":[{"anonymous":false,"inputs":[{"indexed":true,"internalType":"uint256","name":"id","type":"uint256"},{"indexed":true,"internalType":"address","name":"owner","type":"address"},{"indexed":false,"internalType":"string","name":"metadata","type":"string"}],"name":"ItemRegistered","type":"event"},{"anonymous":false,"inputs":[{"indexed":true,"internalType":"uint256","name":"id","type":"uint256"},{"indexed":false,"internalType":"enum SupplyChain.Status","name":"status","type":"uint8"}],"name":"StatusUpdated","type":"event"},{"inputs":[{"internalType":"uint256","name":"","type":"uint256"}],"name":"items","outputs":[{"internalType":"string","name":"metadata","type":"string"},{"internalType":"enum SupplyChain.Status","name":"status","type":"uint8"},{"internalType":"address","name":"owner","type":"address"},{"internalType":"bool","name":"exists","type":"bool"}],"stateMutability":"view","type":"function"},{"inputs":[{"internalType":"uint256","name":"id","type":"uint256"},{"internalType":"string","name":"metadata","type":"string"}],"name":"registerItem","outputs":[],"stateMutability":"nonpayable","type":"function"},{"inputs":[{"internalType":"uint256","name":"id","type":"uint256"},{"internalType":"enum SupplyChain.Status","name":"newStatus","type":"uint8"}],"name":"updateStatus","outputs":[],"stateMutability":"nonpayable","type":"function"}],"evm":{"bytecode":{"linkReferences":{},"object":"608060405234801561001057600080fd5b50610e6a806100206000396000f3fe608060405234801561001057600080fd5b50600436106100415760003560e01c806338a39ef2146100465780633a1b3d3114610062578063bfb231d21461007e575b600080fd5b610060600480360381019061005b919061065b565b6100b1565b005b61007c600480360381019061007791906106e0565b6102bd565b005b61009860048036038101906100939190610720565b6104c4565b6040516100a894939291906108b0565b60405180910390f35b60008084815260200190815260200160002060010160159054906101000a900460ff1615610114576040517f08c379a000000000000000000000000000000000000000000000000000000000815260040161010b90610948565b60405180910390fd5b604051806080016040528083838080601f016020809104026020016040519081016040528093929190818152602001838380828437600081840152601f19601f8201169050808301925050505050505081526020016000600281111561017d5761017c6107dd565b5b81526020013373ffffffffffffffffffffffffffffffffffffffff1681526020016001151581525060008085815260200190815260200160002060008201518160000190816101cc9190610ba3565b5060208201518160010160006101000a81548160ff021916908360028111156101f8576101f76107dd565b5b021790555060408201518160010160016101000a81548173ffffffffffffffffffffffffffffffffffffffff021916908373ffffffffffffffffffffffffffffffffffffffff16021790555060608201518160010160156101000a81548160ff0219169083151502179055509050503373ffffffffffffffffffffffffffffffffffffffff16837f6e25be3619376e564cfe010b907906379faef975c78ba0112d80e039a612a04f84846040516102b0929190610cb1565b60405180910390a3505050565b60008083815260200190815260200160002060010160159054906101000a900460ff1661031f576040517f08c379a000000000000000000000000000000000000000000000000000000000815260040161031690610d21565b60405180910390fd5b3373ffffffffffffffffffffffffffffffffffffffff1660008084815260200190815260200160002060010160019054906101000a900473ffffffffffffffffffffffffffffffffffffffff1673ffffffffffffffffffffffffffffffffffffffff16146103c2576040517f08c379a00000000000000000000000000000000000000000000000000000000081526004016103b990610d8d565b60405180910390fd5b60008083815260200190815260200160002060010160009054906101000a900460ff1660028111156103f7576103f66107dd565b5b81600281111561040a576104096107dd565b5b101561044b576040517f08c379a000000000000000000000000000000000000000000000000000000000815260040161044290610df9565b60405180910390fd5b8060008084815260200190815260200160002060010160006101000a81548160ff02191690836002811115610483576104826107dd565b5b0217905550817f2da7b23ca63c1eb969eee5fae4acb98186abecf5358b0354a82a5183ebca6b2a826040516104b89190610e19565b60405180910390a25050565b60006020528060005260406000206000915090508060000180546104e7906109c6565b80601f0160208091040260200160405190810160405280929190818152602001828054610513906109c6565b80156105605780601f1061053557610100808354040283529160200191610560565b820191906000526020600020905b81548152906001019060200180831161054357829003601f168201915b5050505050908060010160009054906101000a900460ff16908060010160019054906101000a900473ffffffffffffffffffffffffffffffffffffffff16908060010160159054906101000a900460ff16905084565b600080fd5b600080fd5b6000819050919050565b6105d3816105c0565b81146105de57600080fd5b50565b6000813590506105f0816105ca565b92915050565b600080fd5b600080fd5b600080fd5b60008083601f84011261061b5761061a6105f6565b5b8235905067ffffffffffffffff811115610638576106376105fb565b5b60208301915083600182028301111561065457610653610600565b5b9250929050565b600080600060408486031215610674576106736105b6565b5b6000610682868287016105e1565b935050602084013567ffffffffffffffff8111156106a3576106a26105bb565b5b6106af86828701610605565b92509250509250925092565b600381106106c857600080fd5b50565b6000813590506106da816106bb565b92915050565b600080604083850312156106f7576106f66105b6565b5b6000610705858286016105e1565b9250506020610716858286016106cb565b9150509250929050565b600060208284031215610736576107356105b6565b5b6000610744848285016105e1565b91505092915050565b600081519050919050565b600082825260208201905092915050565b60005b8381101561078757808201518184015260208101905061076c565b60008484015250505050565b6000601f19601f8301169050919050565b60006107af8261074d565b6107b98185610758565b93506107c9818560208601610769565b6107d281610793565b840191505092915050565b7f4e487b7100000000000000000000000000000000000000000000000000000000600052602160045260246000fd5b6003811061081d5761081c6107dd565b5b50565b600081905061082e8261080c565b919050565b600061083e82610820565b9050919050565b61084e81610833565b82525050565b600073ffffffffffffffffffffffffffffffffffffffff82169050919050565b600061087f82610854565b9050919050565b61088f81610874565b82525050565b60008115159050919050565b6108aa81610895565b82525050565b600060808201905081810360008301526108ca81876107a4565b90506108d96020830186610845565b6108e66040830185610886565b6108f360608301846108a1565b95945050505050565b7f616c726561647920657869737473000000000000000000000000000000000000600082015250565b6000610932600e83610758565b915061093d826108fc565b602082019050919050565b6000602082019050818103600083015261096181610925565b9050919050565b7f4e487b7100000000000000000000000000000000000000000000000000000000600052604160045260246000fd5b7f4e487b7100000000000000000000000000000000000000000000000000000000600052602260045260246000fd5b600060028204905060018216806109de57607f821691505b6020821081036109f1576109f0610997565b5b50919050565b60008190508160005260206000209050919050565b60006020601f8301049050919050565b600082821b905092915050565b600060088302610a597fffffffffffffffffffffffffffffffffffffffffffffffffffffffffffffffff82610a1c565b610a638683610a1c565b95508019841693508086168417925050509392505050565b6000819050919050565b6000610aa0610a9b610a96846105c0565b610a7b565b6105c0565b9050919050565b6000819050919050565b610aba83610a85565b610ace610ac682610aa7565b848454610a29565b825550505050565b600090565b610ae3610ad6565b610aee818484610ab1565b505050565b5b81811015610b1257610b07600082610adb565b600181019050610af4565b5050565b601f821115610b5757610b28816109f7565b610b3184610a0c565b81016020851015610b40578190505b610b54610b4c85610a0c565b830182610af3565b50505b505050565b600082821c905092915050565b6000610b7a60001984600802610b5c565b1980831691505092915050565b6000610b938383610b69565b9150826002028217905092915050565b610bac8261074d565b67ffffffffffffffff811115610bc557610bc4610968565b5b610bcf82546109c6565b610bda828285610b16565b600060209050601f831160018114610c0d5760008415610bfb578287015190505b610c058582610b87565b865550610c6d565b601f198416610c1b866109f7565b60005b82811015610c4357848901518255600182019150602085019450602081019050610c1e565b86831015610c605784890151610c5c601f891682610b69565b8355505b6001600288020188555050505b505050505050565b82818337600083830152505050565b6000610c908385610758565b9350610c9d838584610c75565b610ca683610793565b840190509392505050565b60006020820190508181036000830152610ccc818486610c84565b90509392505050565b7f6e6f7420666f756e640000000000000000000000000000000000000000000000600082015250565b6000610d0b600983610758565b9150610d1682610cd5565b602082019050919050565b60006020820190508181036000830152610d3a81610cfe565b9050919050565b7f6e6f74206f776e65720000000000000000000000000000000000000000000000600082015250565b6000610d77600983610758565b9150610d8282610d41565b602082019050919050565b60006020820190508181036000830152610da681610d6a565b9050919050565b7f63616e6e6f7420676f206261636b000000000000000000000000000000000000600082015250565b6000610de3600e83610758565b9150610dee82610dad565b602082019050919050565b60006020820190508181036000830152610e1281610dd6565b9050919050565b6000602082019050610e2e6000830184610845565b9291505056fea264697066735822122018ccdc048949f2b1aad135c35954f568ed570e22208b0a263edeef0af16630a164736f6c63430008140033","opcodes":"PUSH1 0x80 PUSH1 0x40 MSTORE CALLVALUE DUP1 ISZERO PUSH2 0x10 JUMPI PUSH1 0x0 DUP1 REVERT JUMPDEST POP PUSH2 0xE6A DUP1 PUSH2 0x20 PUSH1 0x0 CODECOPY PUSH1 0x0 RETURN INVALID PUSH1 0x80 PUSH1 0x40 MSTORE CALLVALUE DUP1 ISZERO PUSH2 0x10 JUMPI PUSH1 0x0 DUP1 REVERT JUMPDEST POP PUSH1 0x4 CALLDATASIZE LT PUSH2 0x41 JUMPI PUSH1 0x0 CALLDATALOAD PUSH1 0xE0 SHR DUP1 PUSH4 0x38A39EF2 EQ PUSH2 0x46 JUMPI DUP1 PUSH4 0x3A1B3D31 EQ PUSH2 0x62 JUMPI DUP1 PUSH4 0xBFB231D2 EQ PUSH2 0x7E JUMPI JUMPDEST PUSH1 0x0 DUP1 REVERT JUMPDEST PUSH2 0x60 PUSH1 0x4 DUP1 CALLDATASIZE SUB DUP2 ADD SWAP1 PUSH2 0x5B SWAP2 SWAP1 PUSH2 0x65B JUMP JUMPDEST PUSH2 0xB1 JUMP JUMPDEST STOP JUMPDEST PUSH2 0x7C PUSH1 0x4 DUP1 CALLDATASIZE SUB DUP2 ADD SWAP1 PUSH2 0x77 SWAP2 SWAP1 PUSH2 0x6E0 JUMP JUMPDEST PUSH2 0x2BD JUMP JUMPDEST STOP JUMPDEST PUSH2 0x98 PUSH1 0x4 DUP1 CALLDATASIZE SUB DUP2 ADD SWAP1 PUSH2 0x93 SWAP2 SWAP1 PUSH2 0x720 JUMP JUMPDEST PUSH2 0x4C4 JUMP JUMPDEST PUSH1 0x40 MLOAD PUSH2 0xA8 SWAP5 SWAP4 SWAP3 SWAP2 SWAP1 PUSH2 0x8B0 JUMP JUMPDEST PUSH1 0x40 MLOAD DUP1 SWAP2 SUB SWAP1 RETURN JUMPDEST PUSH1 0x0 DUP1 DUP5 DUP2 MSTORE PUSH1 0x20 ADD SWAP1 DUP2 MSTORE PUSH1 0x20 ADD PUSH1 0x0 KECCAK256 PUSH1 0x1 ADD PUSH1 0x15 SWAP1 SLOAD SWAP1 PUSH2 0x100 EXP SWAP1 DIV PUSH1 0xFF AND ISZERO PUSH2 0x114 JUMPI PUSH1 0x40 MLOAD PUSH32 0x8C379A000000000000000000000000000000000000000000000000000000000 DUP2 MSTORE PUSH1 0x4 ADD PUSH2 0x10B SWAP1 PUSH2 0x948 JUMP JUMPDEST PUSH1 0x40 MLOAD DUP1 SWAP2 SUB SWAP1 REVERT JUMPDEST PUSH1 0x40 MLOAD DUP1 PUSH1 0x80 ADD PUSH1 0x40 MSTORE DUP1 DUP4 DUP4 DUP1 DUP1 PUSH1 0x1F ADD PUSH1 0x20 DUP1 SWAP2 DIV MUL PUSH1 0x20 ADD PUSH1 0x40 MLOAD SWAP1 DUP2 ADD PUSH1 0x40 MSTORE DUP1 SWAP4 SWAP3 SWAP2 SWAP1 DUP2 DUP2 MSTORE PUSH1 0x20 ADD DUP4 DUP4 DUP1 DUP3 DUP5 CALLDATACOPY PUSH1 0x0 DUP2 DUP5 ADD MSTORE PUSH1 0x1F NOT PUSH1 0x1F DUP3 ADD AND SWAP1 POP DUP1 DUP4 ADD SWAP3 POP POP POP POP POP POP POP DUP2 MSTORE PUSH1 0x20 ADD PUSH1 0x0 PUSH1 0x2 DUP2 GT ISZERO PUSH2 0x17D JUMPI PUSH2 0x17C PUSH2 0x7DD JUMP JUMPDEST JUMPDEST DUP2 MSTORE PUSH1 0x20 ADD CALLER PUSH20 0xFFFFFFFFFFFFFFFFFFFFFFFFFFFFFFFFFFFFFFFF AND DUP2 MSTORE PUSH1 0x20 ADD PUSH1 0x1 ISZERO ISZERO DUP2 MSTORE POP PUSH1 0x0 DUP1 DUP6 DUP2 MSTORE PUSH1 0x20 ADD SWAP1 DUP2 MSTORE PUSH1 0x20 ADD PUSH1 0x0 KECCAK256 PUSH1 0x0 DUP3 ADD MLOAD DUP2 PUSH1 0x0 ADD SWAP1 DUP2 PUSH2 0x1CC SWAP2 SWAP1 PUSH2 0xBA3 JUMP JUMPDEST POP PUSH1 0x20 DUP3 ADD MLOAD DUP2 PUSH1 0x1 ADD PUSH1 0x0 PUSH2 0x100 EXP DUP2 SLOAD DUP2 PUSH1 0xFF MUL NOT AND SWAP1 DUP4 PUSH1 0x2 DUP2 GT ISZERO PUSH2 0x1F8 JUMPI PUSH2 0x1F7 PUSH2 0x7DD JUMP JUMPDEST JUMPDEST MUL OR SWAP1 SSTORE POP PUSH1 0x40 DUP3 ADD MLOAD DUP2 PUSH1 0x1 ADD PUSH1 0x1 PUSH2 0x100 EXP DUP2 SLOAD DUP2 PUSH20 0xFFFFFFFFFFFFFFFFFFFFFFFFFFFFFFFFFFFFFFFF MUL NOT AND SWAP1 DUP4 PUSH20 0xFFFFFFFFFFFFFFFFFFFFFFFFFFFFFFFFFFFFFFFF AND MUL OR SWAP1 SSTORE POP PUSH1 0x60 DUP3 ADD MLOAD DUP2 PUSH1 0x1 ADD PUSH1 0x15 PUSH2 0x100 EXP DUP2 SLOAD DUP2 PUSH1 0xFF MUL NOT AND SWAP1 DUP4 ISZERO ISZERO MUL OR SWAP1 SSTORE POP SWAP1 POP POP CALLER PUSH20 0xFFFFFFFFFFFFFFFFFFFFFFFFFFFFFFFFFFFFFFFF AND DUP4 PUSH32 0x6E25BE3619376E564CFE010B907906379FAEF975C78BA0112D80E039A612A04F DUP5 DUP5 PUSH1 0x40 MLOAD PUSH2 0x2B0 SWAP3 SWAP2 SWAP1 PUSH2 0xCB1 JUMP JUMPDEST PUSH1 0x40 MLOAD DUP1 SWAP2 SUB SWAP1 LOG3 POP POP POP JUMP JUMPDEST PUSH1 0x0 DUP1 DUP4 DUP2 MSTORE PUSH1 0x20 ADD SWAP1 DUP2 MSTORE PUSH1 0x20 ADD PUSH1 0x0 KECCAK256 PUSH1 0x1 ADD PUSH1 0x15 SWAP1 SLOAD SWAP1 PUSH2 0x100 EXP SWAP1 DIV PUSH1 0xFF AND PUSH2 0x31F JUMPI PUSH1 0x40 MLOAD PUSH32 0x8C379A000000000000000000000000000000000000000000000000000000000 DUP2 MSTORE PUSH1 0x4 ADD PUSH2 0x316 SWAP1 PUSH2 0xD21 JUMP JUMPDEST PUSH1 0x40 MLOAD DUP1 SWAP2 SUB SWAP1 REVERT JUMPDEST CALLER PUSH20 0xFFFFFFFFFFFFFFFFFFFFFFFFFFFFFFFFFFFFFFFF AND PUSH1 0x0 DUP1 DUP5 DUP2 MSTORE PUSH1 0x20 ADD SWAP1 DUP2 MSTORE PUSH1 0x20 ADD PUSH1 0x0 KECCAK256 PUSH1 0x1 ADD PUSH1 0x1 SWAP1 SLOAD SWAP1 PUSH2 0x100 EXP SWAP1 DIV PUSH20 0xFFFFFFFFFFFFFFFFFFFFFFFFFFFFFFFFFFFFFFFF AND PUSH20 0xFFFFFFFFFFFFFFFFFFFFFFFFFFFFFFFFFFFFFFFF AND EQ PUSH2 0x3C2 JUMPI PUSH1 0x40 MLOAD PUSH32 0x8C379A000000000000000000000000000000000000000000000000000000000 DUP2 MSTORE PUSH1 0x4 ADD PUSH2 0x3B9 SWAP1 PUSH2 0xD8D JUMP JUMPDEST PUSH1 0x40 MLOAD DUP1 SWAP2 SUB SWAP1 REVERT JUMPDEST PUSH1 0x0 DUP1 DUP4 DUP2 MSTORE PUSH1 0x20 ADD SWAP1 DUP2 MSTORE PUSH1 0x20 ADD PUSH1 0x0 KECCAK256 PUSH1 0x1 ADD PUSH1 0x0 SWAP1 SLOAD SWAP1 PUSH2 0x100 EXP SWAP1 DIV PUSH1 0xFF AND PUSH1 0x2 DUP2 GT ISZERO PUSH2 0x3F7 JUMPI PUSH2 0x3F6 PUSH2 0x7DD JUMP JUMPDEST JUMPDEST DUP2 PUSH1 0x2 DUP2 GT ISZERO PUSH2 0x40A JUMPI PUSH2 0x409 PUSH2 0x7DD JUMP JUMPDEST JUMPDEST LT ISZERO PUSH2 0x44B JUMPI PUSH1 0x40 MLOAD PUSH32 0x8C379A000000000000000000000000000000000000000000000000000000000 DUP2 MSTORE PUSH1 0x4 ADD PUSH2 0x442 SWAP1 PUSH2 0xDF9 JUMP JUMPDEST PUSH1 0x40 MLOAD DUP1 SWAP2 SUB SWAP1 REVERT JUMPDEST DUP1 PUSH1 0x0 DUP1 DUP5 DUP2 MSTORE PUSH1 0x20 ADD SWAP1 DUP2 MSTORE PUSH1 0x20 ADD PUSH1 0x0 KECCAK256 PUSH1 0x1 ADD PUSH1 0x0 PUSH2 0x100 EXP DUP2 SLOAD DUP2 PUSH1 0xFF MUL NOT AND SWAP1 DUP4 PUSH1 0x2 DUP2 GT ISZERO PUSH2 0x483 JUMPI PUSH2 0x482 PUSH2 0x7DD JUMP JUMPDEST JUMPDEST MUL OR SWAP1 SSTORE POP DUP2 PUSH32 0x2DA7B23CA63C1EB969EEE5FAE4ACB98186ABECF5358B0354A82A5183EBCA6B2A DUP3 PUSH1 0x40 MLOAD PUSH2 0x4B8 SWAP2 SWAP1 PUSH2 0xE19 JUMP JUMPDEST PUSH1 0x40 MLOAD DUP1 SWAP2 SUB SWAP1 LOG2 POP POP JUMP JUMPDEST PUSH1 0x0 PUSH1 0x20 MSTORE DUP1 PUSH1 0x0 MSTORE PUSH1 0x40 PUSH1 0x0 KECCAK256 PUSH1 0x0 SWAP2 POP SWAP1 POP DUP1 PUSH1 0x0 ADD DUP1 SLOAD PUSH2 0x4E7 SWAP1 PUSH2 0x9C6 JUMP JUMPDEST DUP1 PUSH1 0x1F ADD PUSH1 0x20 DUP1 SWAP2 DIV MUL PUSH1 0x20 ADD PUSH1 0x40 MLOAD SWAP1 DUP2 ADD PUSH1 0x40 MSTORE DUP1 SWAP3 SWAP2 SWAP1 DUP2 DUP2 MSTORE PUSH1 0x20 ADD DUP3 DUP1 SLOAD PUSH2 0x513 SWAP1 PUSH2 0x9C6 JUMP JUMPDEST DUP1 ISZERO PUSH2 0x560 JUMPI DUP1 PUSH1 0x1F LT PUSH2 0x535 JUMPI PUSH2 0x100 DUP1 DUP4 SLOAD DIV MUL DUP4 MSTORE SWAP2 PUSH1 0x20 ADD SWAP2 PUSH2 0x560 JUMP JUMPDEST DUP3 ADD SWAP2 SWAP1 PUSH1 0x0 MSTORE PUSH1 0x20 PUSH1 0x0 KECCAK256 SWAP1 JUMPDEST DUP2 SLOAD DUP2 MSTORE SWAP1 PUSH1 0x1 ADD SWAP1 PUSH1 0x20 ADD DUP1 DUP4 GT PUSH2 0x543 JUMPI DUP3 SWAP1 SUB PUSH1 0x1F AND DUP3 ADD SWAP2 JUMPDEST POP POP POP POP POP SWAP1 DUP1 PUSH1 0x1 ADD PUSH1 0x0 SWAP1 SLOAD SWAP1 PUSH2 0x100 EXP SWAP1 DIV PUSH1 0xFF AND SWAP1 DUP1 PUSH1 0x1 ADD PUSH1 0x1 SWAP1 SLOAD SWAP1 PUSH2 0x100 EXP SWAP1 DIV PUSH20 0xFFFFFFFFFFFFFFFFFFFFFFFFFFFFFFFFFFFFFFFF AND SWAP1 DUP1 PUSH1 0x1 ADD PUSH1 0x15 SWAP1 SLOAD SWAP1 PUSH2 0x100 EXP SWAP1 DIV PUSH1 0xFF AND SWAP1 POP DUP5 JUMP JUMPDEST PUSH1 0x0 DUP1 REVERT JUMPDEST PUSH1 0x0 DUP1 REVERT JUMPDEST PUSH1 0x0 DUP2 SWAP1 POP SWAP2 SWAP1 POP JUMP JUMPDEST PUSH2 0x5D3 DUP2 PUSH2 0x5C0 JUMP JUMPDEST DUP2 EQ PUSH2 0x5DE JUMPI PUSH1 0x0 DUP1 REVERT JUMPDEST POP JUMP JUMPDEST PUSH1 0x0 DUP2 CALLDATALOAD SWAP1 POP PUSH2 0x5F0 DUP2 PUSH2 0x5CA JUMP JUMPDEST SWAP3 SWAP2 POP POP JUMP JUMPDEST PUSH1 0x0 DUP1 REVERT JUMPDEST PUSH1 0x0 DUP1 REVERT JUMPDEST PUSH1 0x0 DUP1 REVERT JUMPDEST PUSH1 0x0 DUP1 DUP4 PUSH1 0x1F DUP5 ADD SLT PUSH2 0x61B JUMPI PUSH2 0x61A PUSH2 0x5F6 JUMP JUMPDEST JUMPDEST DUP3 CALLDATALOAD SWAP1 POP PUSH8 0xFFFFFFFFFFFFFFFF DUP2 GT ISZERO PUSH2 0x638 JUMPI PUSH2 0x637 PUSH2 0x5FB JUMP JUMPDEST JUMPDEST PUSH1 0x20 DUP4 ADD SWAP2 POP DUP4 PUSH1 0x1 DUP3 MUL DUP4 ADD GT ISZERO PUSH2 0x654 JUMPI PUSH2 0x653 PUSH2 0x600 JUMP JUMPDEST JUMPDEST SWAP3 POP SWAP3 SWAP1 POP JUMP JUMPDEST PUSH1 0x0 DUP1 PUSH1 0x0 PUSH1 0x40 DUP5 DUP7 SUB SLT ISZERO PUSH2 0x674 JUMPI PUSH2 0x673 PUSH2 0x5B6 JUMP JUMPDEST JUMPDEST PUSH1 0x0 PUSH2 0x682 DUP7 DUP3 DUP8 ADD PUSH2 0x5E1 JUMP JUMPDEST SWAP4 POP POP PUSH1 0x20 DUP5 ADD CALLDATALOAD PUSH8 0xFFFFFFFFFFFFFFFF DUP2 GT ISZERO PUSH2 0x6A3 JUMPI PUSH2 0x6A2 PUSH2 0x5BB JUMP JUMPDEST JUMPDEST PUSH2 0x6AF DUP7 DUP3 DUP8 ADD PUSH2 0x605 JUMP JUMPDEST SWAP3 POP SWAP3 POP POP SWAP3 POP SWAP3 POP SWAP3 JUMP JUMPDEST PUSH1 0x3 DUP2 LT PUSH2 0x6C8 JUMPI PUSH1 0x0 DUP1 REVERT JUMPDEST POP JUMP JUMPDEST PUSH1 0x0 DUP2 CALLDATALOAD SWAP1 POP PUSH2 0x6DA DUP2 PUSH2 0x6BB JUMP JUMPDEST SWAP3 SWAP2 POP POP JUMP JUMPDEST PUSH1 0x0 DUP1 PUSH1 0x40 DUP4 DUP6 SUB SLT ISZERO PUSH2 0x6F7 JUMPI PUSH2 0x6F6 PUSH2 0x5B6 JUMP JUMPDEST JUMPDEST PUSH1 0x0 PUSH2 0x705 DUP6 DUP3 DUP7 ADD PUSH2 0x5E1 JUMP JUMPDEST SWAP3 POP POP PUSH1 0x20 PUSH2 0x716 DUP6 DUP3 DUP7 ADD PUSH2 0x6CB JUMP JUMPDEST SWAP2 POP POP SWAP3 POP SWAP3 SWAP1 POP JUMP JUMPDEST PUSH1 0x0 PUSH1 0x20 DUP3 DUP5 SUB SLT ISZERO PUSH2 0x736 JUMPI PUSH2 0x735 PUSH2 0x5B6 JUMP JUMPDEST JUMPDEST PUSH1 0x0 PUSH2 0x744 DUP5 DUP3 DUP6 ADD PUSH2 0x5E1 JUMP JUMPDEST SWAP2 POP POP SWAP3 SWAP2 POP POP JUMP JUMPDEST PUSH1 0x0 DUP2 MLOAD SWAP1 POP SWAP2 SWAP1 POP JUMP JUMPDEST PUSH1 0x0 DUP3 DUP3 MSTORE PUSH1 0x20 DUP3 ADD SWAP1 POP SWAP3 SWAP2 POP POP JUMP JUMPDEST PUSH1 0x0 JUMPDEST DUP4 DUP2 LT ISZERO PUSH2 0x787 JUMPI DUP1 DUP3 ADD MLOAD DUP2 DUP5 ADD MSTORE PUSH1 0x20 DUP2 ADD SWAP1 POP PUSH2 0x76C JUMP JUMPDEST PUSH1 0x0 DUP5 DUP5 ADD MSTORE POP POP POP POP JUMP JUMPDEST PUSH1 0x0 PUSH1 0x1F NOT PUSH1 0x1F DUP4 ADD AND SWAP1 POP SWAP2 SWAP1 POP JUMP JUMPDEST PUSH1 0x0 PUSH2 0x7AF DUP3 PUSH2 0x74D JUMP JUMPDEST PUSH2 0x7B9 DUP2 DUP6 PUSH2 0x758 JUMP JUMPDEST SWAP4 POP PUSH2 0x7C9 DUP2 DUP6 PUSH1 0x20 DUP7 ADD PUSH2 0x769 JUMP JUMPDEST PUSH2 0x7D2 DUP2 PUSH2 0x793 JUMP JUMPDEST DUP5 ADD SWAP2 POP POP SWAP3 SWAP2 POP POP JUMP JUMPDEST PUSH32 0x4E487B7100000000000000000000000000000000000000000000000000000000 PUSH1 0x0 MSTORE PUSH1 0x21 PUSH1 0x4 MSTORE PUSH1 0x24 PUSH1 0x0 REVERT JUMPDEST PUSH1 0x3 DUP2 LT PUSH2 0x81D JUMPI PUSH2 0x81C PUSH2 0x7DD JUMP JUMPDEST JUMPDEST POP JUMP JUMPDEST PUSH1 0x0 DUP2 SWAP1 POP PUSH2 0x82E DUP3 PUSH2 0x80C JUMP JUMPDEST SWAP2 SWAP1 POP JUMP JUMPDEST PUSH1 0x0 PUSH2 0x83E DUP3 PUSH2 0x820 JUMP JUMPDEST SWAP1 POP SWAP2 SWAP1 POP JUMP JUMPDEST PUSH2 0x84E DUP2 PUSH2 0x833 JUMP JUMPDEST DUP3 MSTORE POP POP JUMP JUMPDEST PUSH1 0x0 PUSH20 0xFFFFFFFFFFFFFFFFFFFFFFFFFFFFFFFFFFFFFFFF DUP3 AND SWAP1 POP SWAP2 SWAP1 POP JUMP JUMPDEST PUSH1 0x0 PUSH2 0x87F DUP3 PUSH2 0x854 JUMP JUMPDEST SWAP1 POP SWAP2 SWAP1 POP JUMP JUMPDEST PUSH2 0x88F DUP2 PUSH2 0x874 JUMP JUMPDEST DUP3 MSTORE POP POP JUMP JUMPDEST PUSH1 0x0 DUP2 ISZERO ISZERO SWAP1 POP SWAP2 SWAP1 POP JUMP JUMPDEST PUSH2 0x8AA DUP2 PUSH2 0x895 JUMP JUMPDEST DUP3 MSTORE POP POP JUMP JUMPDEST PUSH1 0x0 PUSH1 0x80 DUP3 ADD SWAP1 POP DUP2 DUP2 SUB PUSH1 0x0 DUP4 ADD MSTORE PUSH2 0x8CA DUP2 DUP8 PUSH2 0x7A4 JUMP JUMPDEST SWAP1 POP PUSH2 0x8D9 PUSH1 0x20 DUP4 ADD DUP7 PUSH2 0x845 JUMP JUMPDEST PUSH2 0x8E6 PUSH1 0x40 DUP4 ADD DUP6 PUSH2 0x886 JUMP JUMPDEST PUSH2 0x8F3 PUSH1 0x60 DUP4 ADD DUP5 PUSH2 0x8A1 JUMP JUMPDEST SWAP6 SWAP5 POP POP POP POP POP JUMP JUMPDEST PUSH32 0x616C726561647920657869737473000000000000000000000000000000000000 PUSH1 0x0 DUP3 ADD MSTORE POP JUMP JUMPDEST PUSH1 0x0 PUSH2 0x932 PUSH1 0xE DUP4 PUSH2 0x758 JUMP JUMPDEST SWAP2 POP PUSH2 0x93D DUP3 PUSH2 0x8FC JUMP JUMPDEST PUSH1 0x20 DUP3 ADD SWAP1 POP SWAP2 SWAP1 POP JUMP JUMPDEST PUSH1 0x0 PUSH1 0x20 DUP3 ADD SWAP1 POP DUP2 DUP2 SUB PUSH1 0x0 DUP4 ADD MSTORE PUSH2 0x961 DUP2 PUSH2 0x925 JUMP JUMPDEST SWAP1 POP SWAP2 SWAP1 POP JUMP JUMPDEST PUSH32 0x4E487B7100000000000000000000000000000000000000000000000000000000 PUSH1 0x0 MSTORE PUSH1 0x41 PUSH1 0x4 MSTORE PUSH1 0x24 PUSH1 0x0 REVERT JUMPDEST PUSH32 0x4E487B7100000000000000000000000000000000000000000000000000000000 PUSH1 0x0 MSTORE PUSH1 0x22 PUSH1 0x4 MSTORE PUSH1 0x24 PUSH1 0x0 REVERT JUMPDEST PUSH1 0x0 PUSH1 0x2 DUP3 DIV SWAP1 POP PUSH1 0x1 DUP3 AND DUP1 PUSH2 0x9DE JUMPI PUSH1 0x7F DUP3 AND SWAP2 POP JUMPDEST PUSH1 0x20 DUP3 LT DUP2 SUB PUSH2 0x9F1 JUMPI PUSH2 0x9F0 PUSH2 0x997 JUMP JUMPDEST JUMPDEST POP SWAP2 SWAP1 POP JUMP JUMPDEST PUSH1 0x0 DUP2 SWAP1 POP DUP2 PUSH1 0x0 MSTORE PUSH1 0x20 PUSH1 0x0 KECCAK256 SWAP1 POP SWAP2 SWAP1 POP JUMP JUMPDEST PUSH1 0x0 PUSH1 0x20 PUSH1 0x1F DUP4 ADD DIV SWAP1 POP SWAP2 SWAP1 POP JUMP JUMPDEST PUSH1 0x0 DUP3 DUP3 SHL SWAP1 POP SWAP3 SWAP2 POP POP JUMP JUMPDEST PUSH1 0x0 PUSH1 0x8 DUP4 MUL PUSH2 0xA59 PUSH32 0xFFFFFFFFFFFFFFFFFFFFFFFFFFFFFFFFFFFFFFFFFFFFFFFFFFFFFFFFFFFFFFFF DUP3 PUSH2 0xA1C JUMP JUMPDEST PUSH2 0xA63 DUP7 DUP4 PUSH2 0xA1C JUMP JUMPDEST SWAP6 POP DUP1 NOT DUP5 AND SWAP4 POP DUP1 DUP7 AND DUP5 OR SWAP3 POP POP POP SWAP4 SWAP3 POP POP POP JUMP JUMPDEST PUSH1 0x0 DUP2 SWAP1 POP SWAP2 SWAP1 POP JUMP JUMPDEST PUSH1 0x0 PUSH2 0xAA0 PUSH2 0xA9B PUSH2 0xA96 DUP5 PUSH2 0x5C0 JUMP JUMPDEST PUSH2 0xA7B JUMP JUMPDEST PUSH2 0x5C0 JUMP JUMPDEST SWAP1 POP SWAP2 SWAP1 POP JUMP JUMPDEST PUSH1 0x0 DUP2 SWAP1 POP SWAP2 SWAP1 POP JUMP JUMPDEST PUSH2 0xABA DUP4 PUSH2 0xA85 JUMP JUMPDEST PUSH2 0xACE PUSH2 0xAC6 DUP3 PUSH2 0xAA7 JUMP JUMPDEST DUP5 DUP5 SLOAD PUSH2 0xA29 JUMP JUMPDEST DUP3 SSTORE POP POP POP POP JUMP JUMPDEST PUSH1 0x0 SWAP1 JUMP JUMPDEST PUSH2 0xAE3 PUSH2 0xAD6 JUMP JUMPDEST PUSH2 0xAEE DUP2 DUP5 DUP5 PUSH2 0xAB1 JUMP JUMPDEST POP POP POP JUMP JUMPDEST JUMPDEST DUP2 DUP2 LT ISZERO PUSH2 0xB12 JUMPI PUSH2 0xB07 PUSH1 0x0 DUP3 PUSH2 0xADB JUMP JUMPDEST PUSH1 0x1 DUP2 ADD SWAP1 POP PUSH2 0xAF4 JUMP JUMPDEST POP POP JUMP JUMPDEST PUSH1 0x1F DUP3 GT ISZERO PUSH2 0xB57 JUMPI PUSH2 0xB28 DUP2 PUSH2 0x9F7 JUMP JUMPDEST PUSH2 0xB31 DUP5 PUSH2 0xA0C JUMP JUMPDEST DUP2 ADD PUSH1 0x20 DUP6 LT ISZERO PUSH2 0xB40 JUMPI DUP2 SWAP1 POP JUMPDEST PUSH2 0xB54 PUSH2 0xB4C DUP6 PUSH2 0xA0C JUMP JUMPDEST DUP4 ADD DUP3 PUSH2 0xAF3 JUMP JUMPDEST POP POP JUMPDEST POP POP POP JUMP JUMPDEST PUSH1 0x0 DUP3 DUP3 SHR SWAP1 POP SWAP3 SWAP2 POP POP JUMP JUMPDEST PUSH1 0x0 PUSH2 0xB7A PUSH1 0x0 NOT DUP5 PUSH1 0x8 MUL PUSH2 0xB5C JUMP JUMPDEST NOT DUP1 DUP4 AND SWAP2 POP POP SWAP3 SWAP2 POP POP JUMP JUMPDEST PUSH1 0x0 PUSH2 0xB93 DUP4 DUP4 PUSH2 0xB69 JUMP JUMPDEST SWAP2 POP DUP3 PUSH1 0x2 MUL DUP3 OR SWAP1 POP SWAP3 SWAP2 POP POP JUMP JUMPDEST PUSH2 0xBAC DUP3 PUSH2 0x74D JUMP JUMPDEST PUSH8 0xFFFFFFFFFFFFFFFF DUP2 GT ISZERO PUSH2 0xBC5 JUMPI PUSH2 0xBC4 PUSH2 0x968 JUMP JUMPDEST JUMPDEST PUSH2 0xBCF DUP3 SLOAD PUSH2 0x9C6 JUMP JUMPDEST PUSH2 0xBDA DUP3 DUP3 DUP6 PUSH2 0xB16 JUMP JUMPDEST PUSH1 0x0 PUSH1 0x20 SWAP1 POP PUSH1 0x1F DUP4 GT PUSH1 0x1 DUP2 EQ PUSH2 0xC0D JUMPI PUSH1 0x0 DUP5 ISZERO PUSH2 0xBFB JUMPI DUP3 DUP8 ADD MLOAD SWAP1 POP JUMPDEST PUSH2 0xC05 DUP6 DUP3 PUSH2 0xB87 JUMP JUMPDEST DUP7 SSTORE POP PUSH2 0xC6D JUMP JUMPDEST PUSH1 0x1F NOT DUP5 AND PUSH2 0xC1B DUP7 PUSH2 0x9F7 JUMP JUMPDEST PUSH1 0x0 JUMPDEST DUP3 DUP2 LT ISZERO PUSH2 0xC43 JUMPI DUP5 DUP10 ADD MLOAD DUP3 SSTORE PUSH1 0x1 DUP3 ADD SWAP2 POP PUSH1 0x20 DUP6 ADD SWAP5 POP PUSH1 0x20 DUP2 ADD SWAP1 POP PUSH2 0xC1E JUMP JUMPDEST DUP7 DUP4 LT ISZERO PUSH2 0xC60 JUMPI DUP5 DUP10 ADD MLOAD PUSH2 0xC5C PUSH1 0x1F DUP10 AND DUP3 PUSH2 0xB69 JUMP JUMPDEST DUP4 SSTORE POP JUMPDEST PUSH1 0x1 PUSH1 0x2 DUP9 MUL ADD DUP9 SSTORE POP POP POP JUMPDEST POP POP POP POP POP POP JUMP JUMPDEST DUP3 DUP2 DUP4 CALLDATACOPY PUSH1 0x0 DUP4 DUP4 ADD MSTORE POP POP POP JUMP JUMPDEST PUSH1 0x0 PUSH2 0xC90 DUP4 DUP6 PUSH2 0x758 JUMP JUMPDEST SWAP4 POP PUSH2 0xC9D DUP4 DUP6 DUP5 PUSH2 0xC75 JUMP JUMPDEST PUSH2 0xCA6 DUP4 PUSH2 0x793 JUMP JUMPDEST DUP5 ADD SWAP1 POP SWAP4 SWAP3 POP POP POP JUMP JUMPDEST PUSH1 0x0 PUSH1 0x20 DUP3 ADD SWAP1 POP DUP2 DUP2 SUB PUSH1 0x0 DUP4 ADD MSTORE PUSH2 0xCCC DUP2 DUP5 DUP7 PUSH2 0xC84 JUMP JUMPDEST SWAP1 POP SWAP4 SWAP3 POP POP POP JUMP JUMPDEST PUSH32 0x6E6F7420666F756E640000000000000000000000000000000000000000000000 PUSH1 0x0 DUP3 ADD MSTORE POP JUMP JUMPDEST PUSH1 0x0 PUSH2 0xD0B PUSH1 0x9 DUP4 PUSH2 0x758 JUMP JUMPDEST SWAP2 POP PUSH2 0xD16 DUP3 PUSH2 0xCD5 JUMP JUMPDEST PUSH1 0x20 DUP3 ADD SWAP1 POP SWAP2 SWAP1 POP JUMP JUMPDEST PUSH1 0x0 PUSH1 0x20 DUP3 ADD SWAP1 POP DUP2 DUP2 SUB PUSH1 0x0 DUP4 ADD MSTORE PUSH2 0xD3A DUP2 PUSH2 0xCFE JUMP JUMPDEST SWAP1 POP SWAP2 SWAP1 POP JUMP JUMPDEST PUSH32 0x6E6F74206F776E65720000000000000000000000000000000000000000000000 PUSH1 0x0 DUP3 ADD MSTORE POP JUMP JUMPDEST PUSH1 0x0 PUSH2 0xD77 PUSH1 0x9 DUP4 PUSH2 0x758 JUMP JUMPDEST SWAP2 POP PUSH2 0xD82 DUP3 PUSH2 0xD41 JUMP JUMPDEST PUSH1 0x20 DUP3 ADD SWAP1 POP SWAP2 SWAP1 POP JUMP JUMPDEST PUSH1 0x0 PUSH1 0x20 DUP3 ADD SWAP1 POP DUP2 DUP2 SUB PUSH1 0x0 DUP4 ADD MSTORE PUSH2 0xDA6 DUP2 PUSH2 0xD6A JUMP JUMPDEST SWAP1 POP SWAP2 SWAP1 POP JUMP JUMPDEST PUSH32 0x63616E6E6F7420676F206261636B000000000000000000000000000000000000 PUSH1 0x0 DUP3 ADD MSTORE POP JUMP JUMPDEST PUSH1 0x0 PUSH2 0xDE3 PUSH1 0xE DUP4 PUSH2 0x758 JUMP JUMPDEST SWAP2 POP PUSH2 0xDEE DUP3 PUSH2 0xDAD JUMP JUMPDEST PUSH1 0x20 DUP3 ADD SWAP1 POP SWAP2 SWAP1 POP JUMP JUMPDEST PUSH1 0x0 PUSH1 0x20 DUP3 ADD SWAP1 POP DUP2 DUP2 SUB PUSH1 0x0 DUP4 ADD MSTORE PUSH2 0xE12 DUP2 PUSH2 0xDD6 JUMP JUMPDEST SWAP1 POP SWAP2 SWAP1 POP JUMP JUMPDEST PUSH1 0x0 PUSH1 0x20 DUP3 ADD SWAP1 POP PUSH2 0xE2E PUSH1 0x0 DUP4 ADD DUP5 PUSH2 0x845 JUMP JUMPDEST SWAP3 SWAP2 POP POP JUMP INVALID LOG2 PUSH5 0x6970667358 0x22 SLT KECCAK256 XOR 0xCC 0xDC DIV DUP10 0x49 CALLCODE 0xB1 0xAA 0xD1 CALLDATALOAD 0xC3 MSIZE SLOAD CREATE2 PUSH9 0xED570E22208B0A263E 0xDE 0xEF EXP CALL PUSH7 0x30A164736F6C63 NUMBER STOP ADDMOD EQ STOP CALLER "},"methodIdentifiers":{"items(uint256)":"bfb231d2","registerItem(uint256,string)":"38a39ef2","updateStatus(uint256,uint8)":"3a1b3d31"}}}}}