{
  "_format": "hh-sol-artifact-1",
  "contractName": "Attack",
  "sourceName": "contracts/security/Attack.sol",
  "abi": [
    {
      "inputs": [
        {
          "internalType": "address",
          "name": "bank_",
          "type": "address"
        }
      ],
      "stateMutability": "nonpayable",
      "type": "constructor"
    },
    {
      "inputs": [
        {
          "internalType": "uint256",
          "name": "_maxReenters",
          "type": "uint256"
        }
      ],
      "name": "attack",
      "outputs": [],
      "stateMutability": "payable",
      "type": "function"
    },
    {
      "inputs": [],
      "name": "bank",
      "outputs": [
        {
          "internalType": "contract IVuln",
          "name": "",
          "type": "address"
        }
      ],
      "stateMutability": "view",
      "type": "function"
    },
    {
      "inputs": [],
      "name": "maxReenters",
      "outputs": [
        {
          "internalType": "uint256",
          "name": "",
          "type": "uint256"
        }
      ],
      "stateMutability": "view",
      "type": "function"
    },
    {
      "inputs": [],
      "name": "reentered",
      "outputs": [
        {
          "internalType": "uint256",
          "name": "",
          "type": "uint256"
        }
      ],
      "stateMutability": "view",
      "type": "function"
    },
    {
      "inputs": [],
      "name": "step",
      "outputs": [
        {
          "internalType": "uint256",
          "name": "",
          "type": "uint256"
        }
      ],
      "stateMutability": "view",
      "type": "function"
    },
    {
      "stateMutability": "payable",
      "type": "receive"
    }
  ],
  "bytecode": "0x608060405234801561001057600080fd5b50604051610726380380610726833981810160405281019061003291906100db565b806000806101000a81548173ffffffffffffffffffffffffffffffffffffffff021916908373ffffffffffffffffffffffffffffffffffffffff16021790555050610108565b600080fd5b600073ffffffffffffffffffffffffffffffffffffffff82169050919050565b60006100a88261007d565b9050919050565b6100b88161009d565b81146100c357600080fd5b50565b6000815190506100d5816100af565b92915050565b6000602082840312156100f1576100f0610078565b5b60006100ff848285016100c6565b91505092915050565b61060f806101176000396000f3fe60806040526004361061004e5760003560e01c80633f09775e1461015157806364dd891a1461017c57806376cdb03b14610198578063a9ad83de146101c3578063e25fe175146101ee5761014c565b3661014c5760035460025410801561009f575060015460008054906101000a900473ffffffffffffffffffffffffffffffffffffffff1673ffffffffffffffffffffffffffffffffffffffff163110155b1561014a57600260008154809291906100b7906103f2565b919050555060008054906101000a900473ffffffffffffffffffffffffffffffffffffffff1673ffffffffffffffffffffffffffffffffffffffff16632e1a7d4d6001546040518263ffffffff1660e01b81526004016101179190610449565b600060405180830381600087803b15801561013157600080fd5b505af1158015610145573d6000803e3d6000fd5b505050505b005b600080fd5b34801561015d57600080fd5b50610166610219565b6040516101739190610449565b60405180910390f35b61019660048036038101906101919190610495565b61021f565b005b3480156101a457600080fd5b506101ad610389565b6040516101ba9190610541565b60405180910390f35b3480156101cf57600080fd5b506101d86103ad565b6040516101e59190610449565b60405180910390f35b3480156101fa57600080fd5b506102036103b3565b6040516102109190610449565b60405180910390f35b60025481565b60003411610262576040517f08c379a0000000000000000000000000000000000000000000000000000000008152600401610259906105b9565b60405180910390fd5b3460018190555080600381905550600060028190555060008054906101000a900473ffffffffffffffffffffffffffffffffffffffff1673ffffffffffffffffffffffffffffffffffffffff1663d0e30db0346040518263ffffffff1660e01b81526004016000604051808303818588803b1580156102e057600080fd5b505af11580156102f4573d6000803e3d6000fd5b505050505060008054906101000a900473ffffffffffffffffffffffffffffffffffffffff1673ffffffffffffffffffffffffffffffffffffffff16632e1a7d4d6001546040518263ffffffff1660e01b81526004016103549190610449565b600060405180830381600087803b15801561036e57600080fd5b505af1158015610382573d6000803e3d6000fd5b5050505050565b60008054906101000a900473ffffffffffffffffffffffffffffffffffffffff1681565b60035481565b60015481565b7f4e487b7100000000000000000000000000000000000000000000000000000000600052601160045260246000fd5b6000819050919050565b60006103fd826103e8565b91507fffffffffffffffffffffffffffffffffffffffffffffffffffffffffffffffff820361042f5761042e6103b9565b5b600182019050919050565b610443816103e8565b82525050565b600060208201905061045e600083018461043a565b92915050565b600080fd5b610472816103e8565b811461047d57600080fd5b50565b60008135905061048f81610469565b92915050565b6000602082840312156104ab576104aa610464565b5b60006104b984828501610480565b91505092915050565b600073ffffffffffffffffffffffffffffffffffffffff82169050919050565b6000819050919050565b60006105076105026104fd846104c2565b6104e2565b6104c2565b9050919050565b6000610519826104ec565b9050919050565b600061052b8261050e565b9050919050565b61053b81610520565b82525050565b60006020820190506105566000830184610532565b92915050565b600082825260208201905092915050565b7f6e65656420657468000000000000000000000000000000000000000000000000600082015250565b60006105a360088361055c565b91506105ae8261056d565b602082019050919050565b600060208201905081810360008301526105d281610596565b905091905056fea26469706673582212209fe2d1be1fac4d6f52d416c43afc5d9fca218f8a6b086fca82a43fb7ea01da9e64736f6c63430008140033",
  "linkReferences": {},
  "deployedLinkReferences": {}
}