{
  "_format": "hh-sol-artifact-1",
  "contractName": "SupplyChain",
  "sourceName": "contracts/indusrty/SupplyChain.sol",
  "abi": [
    {
      "anonymous": false,
      "inputs": [
        {
          "indexed": true,
          "internalType": "uint256",
          "name": "id",
          "type": "uint256"
        },
        {
          "indexed": true,
          "internalType": "address",
          "name": "owner",
          "type": "address"
        },
        {
          "indexed": false,
          "internalType": "string",
          "name": "metadata",
          "type": "string"
        }
      ],
      "name": "ItemRegistered",
      "type": "event"
    },
    {
      "anonymous": false,
      "inputs": [
        {
          "indexed": true,
          "internalType": "uint256",
          "name": "id",
          "type": "uint256"
        },
        {
          "indexed": false,
          "internalType": "enum SupplyChain.Status",
          "name": "status",
          "type": "uint8"
        }
      ],
      "name": "StatusUpdated",
      "type": "event"
    },
    {
      "inputs": [
        {
          "internalType": "uint256",
          "name": "",
          "type": "uint256"
        }
      ],
      "name": "items",
      "outputs": [
        {
          "internalType": "string",
          "name": "metadata",
          "type": "string"
        },
        {
          "internalType": "enum SupplyChain.Status",
          "name": "status",
          "type": "uint8"
        },
        {
          "internalType": "address",
          "name": "owner",
          "type": "address"
        },
        {
          "internalType": "bool",
          "name": "exists",
          "type": "bool"
        }
      ],
      "stateMutability": "view",
      "type": "function"
    },
    {
      "inputs": [
        {
          "internalType": "uint256",
          "name": "id",
          "type": "uint256"
        },
        {
          "internalType": "string",
          "name": "metadata",
          "type": "string"
        }
      ],
      "name": "registerItem",
      "outputs": [],
      "stateMutability": "nonpayable",
      "type": "function"
    },
    {
      "inputs": [
        {
          "internalType": "uint256",
          "name": "id",
          "type": "uint256"
        },
        {
          "internalType": "enum SupplyChain.Status",
          "name": "newStatus",
          "type": "uint8"
        }
      ],
      "name": "updateStatus",
      "outputs": [],
      "stateMutability": "nonpayable",
      "type": "function"
    }
  ],
  "bytecode": "0x608060405234801561001057600080fd5b50610e6a806100206000396000f3fe608060405234801561001057600080fd5b50600436106100415760003560e01c806338a39ef2146100465780633a1b3d3114610062578063bfb231d21461007e575b600080fd5b610060600480360381019061005b919061065b565b6100b1565b005b61007c600480360381019061007791906106e0565b6102bd565b005b61009860048036038101906100939190610720565b6104c4565b6040516100a894939291906108b0565b60405180910390f35b60008084815260200190815260200160002060010160159054906101000a900460ff1615610114576040517f08c379a000000000000000000000000000000000000000000000000000000000815260040161010b90610948565b60405180910390fd5b604051806080016040528083838080601f016020809104026020016040519081016040528093929190818152602001838380828437600081840152601f19601f8201169050808301925050505050505081526020016000600281111561017d5761017c6107dd565b5b81526020013373ffffffffffffffffffffffffffffffffffffffff1681526020016001151581525060008085815260200190815260200160002060008201518160000190816101cc9190610ba3565b5060208201518160010160006101000a81548160ff021916908360028111156101f8576101f76107dd565b5b021790555060408201518160010160016101000a81548173ffffffffffffffffffffffffffffffffffffffff021916908373ffffffffffffffffffffffffffffffffffffffff16021790555060608201518160010160156101000a81548160ff0219169083151502179055509050503373ffffffffffffffffffffffffffffffffffffffff16837f6e25be3619376e564cfe010b907906379faef975c78ba0112d80e039a612a04f84846040516102b0929190610cb1565b60405180910390a3505050565b60008083815260200190815260200160002060010160159054906101000a900460ff1661031f576040517f08c379a000000000000000000000000000000000000000000000000000000000815260040161031690610d21565b60405180910390fd5b3373ffffffffffffffffffffffffffffffffffffffff1660008084815260200190815260200160002060010160019054906101000a900473ffffffffffffffffffffffffffffffffffffffff1673ffffffffffffffffffffffffffffffffffffffff16146103c2576040517f08c379a00000000000000000000000000000000000000000000000000000000081526004016103b990610d8d565b60405180910390fd5b60008083815260200190815260200160002060010160009054906101000a900460ff1660028111156103f7576103f66107dd565b5b81600281111561040a576104096107dd565b5b101561044b576040517f08c379a000000000000000000000000000000000000000000000000000000000815260040161044290610df9565b60405180910390fd5b8060008084815260200190815260200160002060010160006101000a81548160ff02191690836002811115610483576104826107dd565b5b0217905550817f2da7b23ca63c1eb969eee5fae4acb98186abecf5358b0354a82a5183ebca6b2a826040516104b89190610e19565b60405180910390a25050565b60006020528060005260406000206000915090508060000180546104e7906109c6565b80601f0160208091040260200160405190810160405280929190818152602001828054610513906109c6565b80156105605780601f1061053557610100808354040283529160200191610560565b820191906000526020600020905b81548152906001019060200180831161054357829003601f168201915b5050505050908060010160009054906101000a900460ff16908060010160019054906101000a900473ffffffffffffffffffffffffffffffffffffffff16908060010160159054906101000a900460ff16905084565b600080fd5b600080fd5b6000819050919050565b6105d3816105c0565b81146105de57600080fd5b50565b6000813590506105f0816105ca565b92915050565b600080fd5b600080fd5b600080fd5b60008083601f84011261061b5761061a6105f6565b5b8235905067ffffffffffffffff811115610638576106376105fb565b5b60208301915083600182028301111561065457610653610600565b5b9250929050565b600080600060408486031215610674576106736105b6565b5b6000610682868287016105e1565b935050602084013567ffffffffffffffff8111156106a3576106a26105bb565b5b6106af86828701610605565b92509250509250925092565b600381106106c857600080fd5b50565b6000813590506106da816106bb565b92915050565b600080604083850312156106f7576106f66105b6565b5b6000610705858286016105e1565b9250506020610716858286016106cb565b9150509250929050565b600060208284031215610736576107356105b6565b5b6000610744848285016105e1565b91505092915050565b600081519050919050565b600082825260208201905092915050565b60005b8381101561078757808201518184015260208101905061076c565b60008484015250505050565b6000601f19601f8301169050919050565b60006107af8261074d565b6107b98185610758565b93506107c9818560208601610769565b6107d281610793565b840191505092915050565b7f4e487b7100000000000000000000000000000000000000000000000000000000600052602160045260246000fd5b6003811061081d5761081c6107dd565b5b50565b600081905061082e8261080c565b919050565b600061083e82610820565b9050919050565b61084e81610833565b82525050565b600073ffffffffffffffffffffffffffffffffffffffff82169050919050565b600061087f82610854565b9050919050565b61088f81610874565b82525050565b60008115159050919050565b6108aa81610895565b82525050565b600060808201905081810360008301526108ca81876107a4565b90506108d96020830186610845565b6108e66040830185610886565b6108f360608301846108a1565b95945050505050565b7f616c726561647920657869737473000000000000000000000000000000000000600082015250565b6000610932600e83610758565b915061093d826108fc565b602082019050919050565b6000602082019050818103600083015261096181610925565b9050919050565b7f4e487b7100000000000000000000000000000000000000000000000000000000600052604160045260246000fd5b7f4e487b7100000000000000000000000000000000000000000000000000000000600052602260045260246000fd5b600060028204905060018216806109de57607f821691505b6020821081036109f1576109f0610997565b5b50919050565b60008190508160005260206000209050919050565b60006020601f8301049050919050565b600082821b905092915050565b600060088302610a597fffffffffffffffffffffffffffffffffffffffffffffffffffffffffffffffff82610a1c565b610a638683610a1c565b95508019841693508086168417925050509392505050565b6000819050919050565b6000610aa0610a9b610a96846105c0565b610a7b565b6105c0565b9050919050565b6000819050919050565b610aba83610a85565b610ace610ac682610aa7565b848454610a29565b825550505050565b600090565b610ae3610ad6565b610aee818484610ab1565b505050565b5b81811015610b1257610b07600082610adb565b600181019050610af4565b5050565b601f821115610b5757610b28816109f7565b610b3184610a0c565b81016020851015610b40578190505b610b54610b4c85610a0c565b830182610af3565b50505b505050565b600082821c905092915050565b6000610b7a60001984600802610b5c565b1980831691505092915050565b6000610b938383610b69565b9150826002028217905092915050565b610bac8261074d565b67ffffffffffffffff811115610bc557610bc4610968565b5b610bcf82546109c6565b610bda828285610b16565b600060209050601f831160018114610c0d5760008415610bfb578287015190505b610c058582610b87565b865550610c6d565b601f198416610c1b866109f7565b60005b82811015610c4357848901518255600182019150602085019450602081019050610c1e565b86831015610c605784890151610c5c601f891682610b69565b8355505b6001600288020188555050505b505050505050565b82818337600083830152505050565b6000610c908385610758565b9350610c9d838584610c75565b610ca683610793565b840190509392505050565b60006020820190508181036000830152610ccc818486610c84565b90509392505050565b7f6e6f7420666f756e640000000000000000000000000000000000000000000000600082015250565b6000610d0b600983610758565b9150610d1682610cd5565b602082019050919050565b60006020820190508181036000830152610d3a81610cfe565b9050919050565b7f6e6f74206f776e65720000000000000000000000000000000000000000000000600082015250565b6000610d77600983610758565b9150610d8282610d41565b602082019050919050565b60006020820190508181036000830152610da681610d6a565b9050919050565b7f63616e6e6f7420676f206261636b000000000000000000000000000000000000600082015250565b6000610de3600e83610758565b9150610dee82610dad565b602082019050919050565b60006020820190508181036000830152610e1281610dd6565b9050919050565b6000602082019050610e2e6000830184610845565b9291505056fea264697066735822122018ccdc048949f2b1aad135c35954f568ed570e22208b0a263edeef0af16630a164736f6c63430008140033",
  "linkReferences": {},
  "deployedLinkReferences": {}
}