{
  "_format": "hh-sol-artifact-1",
  "contractName": "LendingPool",
  "sourceName": "contracts/defi/LendingPool.sol",
  "abi": [
    {
      "inputs": [
        {
          "internalType": "address",
          "name": "token_",
          "type": "address"
        }
      ],
      "stateMutability": "nonpayable",
      "type": "constructor"
    },
    {
      "inputs": [
        {
          "internalType": "uint256",
          "name": "amount",
          "type": "uint256"
        }
      ],
      "name": "deposit",
      "outputs": [],
      "stateMutability": "nonpayable",
      "type": "function"
    },
    {
      "inputs": [
        {
          "internalType": "address",
          "name": "",
          "type": "address"
        }
      ],
      "name": "deposited",
      "outputs": [
        {
          "internalType": "uint256",
          "name": "",
          "type": "uint256"
        }
      ],
      "stateMutability": "view",
      "type": "function"
    },
    {
      "inputs": [],
      "name": "token",
      "outputs": [
        {
          "internalType": "contract IERC20",
          "name": "",
          "type": "address"
        }
      ],
      "stateMutability": "view",
      "type": "function"
    },
    {
      "inputs": [],
      "name": "totalDeposited",
      "outputs": [
        {
          "internalType": "uint256",
          "name": "",
          "type": "uint256"
        }
      ],
      "stateMutability": "view",
      "type": "function"
    },
    {
      "inputs": [
        {
          "internalType": "uint256",
          "name": "amount",
          "type": "uint256"
        }
      ],
      "name": "withdraw",
      "outputs": [],
      "stateMutability": "nonpayable",
      "type": "function"
    }
  ],
  "bytecode": "0x60a060405234801561001057600080fd5b50604051610b05380380610b05833981810160405281019061003291906100cf565b8073ffffffffffffffffffffffffffffffffffffffff1660808173ffffffffffffffffffffffffffffffffffffffff1681525050506100fc565b600080fd5b600073ffffffffffffffffffffffffffffffffffffffff82169050919050565b600061009c82610071565b9050919050565b6100ac81610091565b81146100b757600080fd5b50565b6000815190506100c9816100a3565b92915050565b6000602082840312156100e5576100e461006c565b5b60006100f3848285016100ba565b91505092915050565b6080516109e0610125600039600081816102340152818161035701526104bf01526109e06000f3fe608060405234801561001057600080fd5b50600436106100575760003560e01c80632e1a7d4d1461005c578063b6b55f2514610078578063cb13cddb14610094578063fc0c546a146100c4578063ff50abdc146100e2575b600080fd5b61007660048036038101906100719190610522565b610100565b005b610092600480360381019061008d9190610522565b610312565b005b6100ae60048036038101906100a991906105ad565b6104a5565b6040516100bb91906105e9565b60405180910390f35b6100cc6104bd565b6040516100d99190610663565b60405180910390f35b6100ea6104e1565b6040516100f791906105e9565b60405180910390f35b60008111610143576040517f08c379a000000000000000000000000000000000000000000000000000000000815260040161013a906106db565b60405180910390fd5b806000803373ffffffffffffffffffffffffffffffffffffffff1673ffffffffffffffffffffffffffffffffffffffff1681526020019081526020016000205410156101c4576040517f08c379a00000000000000000000000000000000000000000000000000000000081526004016101bb90610747565b60405180910390fd5b806000803373ffffffffffffffffffffffffffffffffffffffff1673ffffffffffffffffffffffffffffffffffffffff16815260200190815260200160002060008282546102129190610796565b92505081905550806001600082825461022b9190610796565b925050819055507f000000000000000000000000000000000000000000000000000000000000000073ffffffffffffffffffffffffffffffffffffffff1663a9059cbb33836040518363ffffffff1660e01b815260040161028d9291906107d9565b6020604051808303816000875af11580156102ac573d6000803e3d6000fd5b505050506040513d601f19601f820116820180604052508101906102d0919061083a565b61030f576040517f08c379a0000000000000000000000000000000000000000000000000000000008152600401610306906108b3565b60405180910390fd5b50565b60008111610355576040517f08c379a000000000000000000000000000000000000000000000000000000000815260040161034c906106db565b60405180910390fd5b7f000000000000000000000000000000000000000000000000000000000000000073ffffffffffffffffffffffffffffffffffffffff166323b872dd3330846040518463ffffffff1660e01b81526004016103b2939291906108d3565b6020604051808303816000875af11580156103d1573d6000803e3d6000fd5b505050506040513d601f19601f820116820180604052508101906103f5919061083a565b610434576040517f08c379a000000000000000000000000000000000000000000000000000000000815260040161042b90610956565b60405180910390fd5b806000803373ffffffffffffffffffffffffffffffffffffffff1673ffffffffffffffffffffffffffffffffffffffff16815260200190815260200160002060008282546104829190610976565b92505081905550806001600082825461049b9190610976565b9250508190555050565b60006020528060005260406000206000915090505481565b7f000000000000000000000000000000000000000000000000000000000000000081565b60015481565b600080fd5b6000819050919050565b6104ff816104ec565b811461050a57600080fd5b50565b60008135905061051c816104f6565b92915050565b600060208284031215610538576105376104e7565b5b60006105468482850161050d565b91505092915050565b600073ffffffffffffffffffffffffffffffffffffffff82169050919050565b600061057a8261054f565b9050919050565b61058a8161056f565b811461059557600080fd5b50565b6000813590506105a781610581565b92915050565b6000602082840312156105c3576105c26104e7565b5b60006105d184828501610598565b91505092915050565b6105e3816104ec565b82525050565b60006020820190506105fe60008301846105da565b92915050565b6000819050919050565b600061062961062461061f8461054f565b610604565b61054f565b9050919050565b600061063b8261060e565b9050919050565b600061064d82610630565b9050919050565b61065d81610642565b82525050565b60006020820190506106786000830184610654565b92915050565b600082825260208201905092915050565b7f616d6f756e743d30000000000000000000000000000000000000000000000000600082015250565b60006106c560088361067e565b91506106d08261068f565b602082019050919050565b600060208201905081810360008301526106f4816106b8565b9050919050565b7f6e6f7420656e6f75676800000000000000000000000000000000000000000000600082015250565b6000610731600a8361067e565b915061073c826106fb565b602082019050919050565b6000602082019050818103600083015261076081610724565b9050919050565b7f4e487b7100000000000000000000000000000000000000000000000000000000600052601160045260246000fd5b60006107a1826104ec565b91506107ac836104ec565b92508282039050818111156107c4576107c3610767565b5b92915050565b6107d38161056f565b82525050565b60006040820190506107ee60008301856107ca565b6107fb60208301846105da565b9392505050565b60008115159050919050565b61081781610802565b811461082257600080fd5b50565b6000815190506108348161080e565b92915050565b6000602082840312156108505761084f6104e7565b5b600061085e84828501610825565b91505092915050565b7f7472616e73666572206661696c65640000000000000000000000000000000000600082015250565b600061089d600f8361067e565b91506108a882610867565b602082019050919050565b600060208201905081810360008301526108cc81610890565b9050919050565b60006060820190506108e860008301866107ca565b6108f560208301856107ca565b61090260408301846105da565b949350505050565b7f7472616e7366657246726f6d206661696c656400000000000000000000000000600082015250565b600061094060138361067e565b915061094b8261090a565b602082019050919050565b6000602082019050818103600083015261096f81610933565b9050919050565b6000610981826104ec565b915061098c836104ec565b92508282019050808211156109a4576109a3610767565b5b9291505056fea2646970667358221220b5810229ca40dcb7e4823d6e5453fa1bbf3f3a19191b0d4316a3f738eb86ec6564736f6c63430008140033",
  "linkReferences": {},
  "deployedLinkReferences": {}
}